:020000040800F2
:1000000000000120C5020008CB020008CF02000852
:1000100041030008450300088D03000800000000AC
:10002000000000000000000000000000D5030008F0
:10003000D903000800000000DD030008FD100008DF
:10004000F1030008F1030008F1030008F1030008C0
:10005000F1030008F1030008BD070008DD070008F0
:10006000FD0700081D0800083D080008F10300080E
:10007000F1030008F1030008F1030008F103000890
:10008000F1030008F1030008F1030008000000007C
:100090000000000000000000000000005D080008F3
:1000A000F1030008F1030008F1030008F103000860
:1000B000F1030008F1030008F1030008F103000850
:1000C000F1030008F1030008F1030008F103000840
:1000D000F1030008F1030008F1030008000000002C
:1000E00091080008F1030008F10300080000000077
:1000F000000000000000000000000000F103000804
:1001000000000000F1030008F1030008F1030008FB
:1001100000000000000000000000000000000000DF
:10012000F1030008F1030008F1030008F1030008DF
:10013000F1030008000000000000000000000000C3
:10014000000000000000000000000000F1030008B3
:10015000F1030008F1030008F1030008F1030008AF
:10016000F1030008F1030008000000000000000097
:10017000000000000000000000000000000000007F
:1001800000000000F1030008000000000000000073
:10019000F103000800B583B000F048FA384B394A43
:1001A0001360394A1360394906E052F8041B43F8DA
:1001B000041B9842F9D86146354B994205D20A682A
:1001C0004B6801F10C0C8868F3E72E4B1A68314B31
:1001D0009A4200D0FEE72C4B1A682F4B9A42F9D175
:1001E000274B2E4A13602E4A13602E4A00E0024627
:1001F0002D4B9A4209D2104650F8083B516899425B
:10020000F5D9002243F8042BF9E7244B1B6813B9F6
:10021000234B1B6803B1FEE700F014FA694601A8FE
:1002200000F022F9214C224BE41AA410002504E02E
:100230001F4B53F8253098470135AC42F8DC1D4C74
:100240001D4BE41AA410002504E01B4B53F8253085
:1002500098470135AC42F8DC0099019801F0BEF9ED
:100260000546164C164BE41AA41004E0013C144B4E
:1002700053F824309847002CF8DC284600F0D0F8DA
:10028000BABADECA0000002010010020F403000802
:100290000C04000878563412325476981401002069
:1002A000880200200C0400081C0400081C0400083C
:1002B0001C0400081C0400081C0400081C0400089E
:1002C0001C04000808B5FFF765FF00BEFEE71EF03E
:1002D000040F0CBFEFF30880EFF309807146414A29
:1002E00010472DE9F04182B004460D46124B5F6B7A
:1002F000D3F838809E6A1B6B13F0020F03D00E4BAD
:10030000DB6A002B0BDB0D4800F0ECF80095434650
:100310003A463146204600F0FFF800BEFEE74BF6B5
:10032000AB6100F073F90028EDD0034B4FF00042B1
:10033000DA6202B0BDE8F08100ED00E008280008B4
:1003400000BEFEE71EF0040F0CBFEFF30880EFF3D2
:1003500009807146244A10472DE9F04182B00446D5
:100360000D46084B5F6BD3F838809E6A064800F054
:10037000B9F8009543463A463146204600F0CCF89D
:1003800000BEFEE700ED00E0182800081EF0040F94
:100390000CBFEFF30880EFF309807146134A104752
:1003A0002DE9F04182B004460D46084B5F6BD3F84F
:1003B00038809E6A064800F095F8009543463A4614
:1003C0003146204600F0A8F800BEFEE700ED00E050
:1003D0002428000800BEFEE700BEFEE700BEFEE7E0
:1003E00070470000E302000859030008A103000859
:0403F00000BEFEE766
:1003F400B8E103080000002014010020B8E103085C
:100404000000001000000010140100208C020020E5
:080414000000001000000010C0
:10042000FEE7000008B503460C4A12685AB10B4AB1
:100430001068033323F003030344094A934206D8A8
:10044000064A136008BD054A06491160EFE701F04E
:100450009BFC0C2303604FF0FF30F3E718010020F2
:1004600000FC00208C02002001230360014B0B6084
:10047000704700BF040000202DE9F04385B004461A
:100480000F4643563BBB042528462146ABBE0546D6
:10049000384605B0BDE8F08314F901CB03F1100232
:1004A0006A4402F810CC0133AB42F5D310336B44ED
:1004B000002203F8102C4FF00408E9464046494654
:1004C000ABBE8046761B002EE2D03546102E28BFEC
:1004D00010250023E8E70E46F5E708B5FFF7CCFF47
:1004E00008BD00000FB400B583B004AB53F8042B73
:1004F00001938021074801F039FC002804DC03B097
:100500005DF804EB04B0704701460248FFF7E5FFD1
:10051000F5E700BF24010020F8B504460D46174654
:100520001E462748FFF7DEFF21682648FFF7DAFF5F
:1005300061682548FFF7D6FFA1682448FFF7D2FF7E
:10054000E1682348FFF7CEFF21692248FFF7CAFF81
:1005500061692148FFF7C6FFA1692048FFF7C2FF84
:10056000E1691F48FFF7BEFF1E48FFF7BBFF2946A2
:100570001D48FFF7B7FF1D4CE16A1D48FFF7B2FFAA
:10058000216B1C48FFF7AEFFE16B1B48FFF7AAFF8A
:1005900015F0800F0AD115F4004F0CD11748FFF762
:1005A000A1FF06991648FFF79DFFF8BD394615488B
:1005B000FFF798FFEFE731461348FFF793FFEDE7AA
:1005C000EC260008FC2600080C2700081C27000861
:1005D0002C2700083C2700084C2700085C2700084F
:1005E0006C2700087C2700088827000800ED00E041
:1005F00098270008A8270008B8270008E82700085F
:10060000F0270008C8270008D827000883691A883F
:100610008A4201D0002070470268033A012A01D9BA
:1006200000207047023383610120704708B500F055
:100630000DF8024A024B9A6008BD00BF0000000896
:1006400000ED00E008B500F009F808BD024B4FF0DE
:1006500000629A60704700BF00ED00E0224B9B688B
:1006600003F00C03042B14D0082B16D01BB11F4B26
:100670001F4A1A6002E01D4B1D4A1A601A4B9B6804
:10068000C3F303131B4AD15C184A1368CB401360B1
:100690007047164B184A1A60F0E7134B59685A68AE
:1006A00002F03F0211F4800F13D0134BB3FBF2F3AF
:1006B0000D4A5268C2F3881202FB03F30A4A5268D9
:1006C000C2F3014201325200B3FBF2F3074A136056
:1006D000D4E7074BB3FBF2F3034A5268C2F3881224
:1006E00002FB03F3EAE700BF003802400C000020E1
:1006F0000024F4003428000840787D0110B48B08F1
:100700000B4A023352F8234001F0030189004FF0F5
:100710000F0C0CFA01FC24EA0C0442F8234052F8B6
:1007200023408840044342F8234010BC704700BF78
:1007300000380140012908D031B907490B6801226E
:10074000824023EA02030B60704703490B680122D1
:10075000824013430B607047003C014051B9124B7B
:10076000D9680122824021EA0201D96099680A43CE
:100770009A607047012902D002290BD070470A4BBA
:1007800099680122824021EA02019960D9680A43EE
:10079000DA607047044A91680123834019439160ED
:1007A000D1680B43D360E9E7003C014011B1024A34
:1007B00042F82010704700BFA401002008B5054B87
:1007C0001B6803B19847044A536943F0010353611E
:1007D00008BD00BFA4010020003C014008B5054B46
:1007E0005B6803B19847044A536943F002035361BD
:1007F00008BD00BFA4010020003C014008B5054B26
:100800009B6803B19847044A536943F0040353615A
:1008100008BD00BFA4010020003C014008B5054B05
:10082000DB6803B19847044A536943F008035361F6
:1008300008BD00BFA4010020003C014008B5054BE5
:100840001B6903B19847044A536943F0100353618D
:1008500008BD00BFA4010020003C014038B50524BC
:1008600007E009494B690122AA4013434B61013457
:10087000E4B2092C07D82546044B53F82430002B4A
:10088000EFD09847EDE738BD003C0140A4010020BF
:1008900038B50A2408E0984708494B690122AA4064
:1008A00013434B610134E4B20F2C06D82546044BA8
:1008B00053F82430002BEED1EEE738BD003C014068
:1008C000A4010020034620B9A1F10D00C0B2022806
:1008D00006D9012B05D0012B18D0022B26D02BB125
:1008E0007047C81EC0B20128F5D8F9E7174B186841
:1008F00049004FF0030C0CFA01FC20EA0C001860D0
:10090000186802FA01F1014319607047104B18682A
:1009100049004FF0030C0CFA01FC20EA0C001860AF
:10092000186802FA01F1014319607047094B186811
:1009300049004FF0030C0CFA01FC20EA0C0018608F
:1009400018688A4002431A60CAE700BF00000240EC
:10095000000402400008024010B4044620B9A1F18E
:100960000D00C0B2022806D9012C06D0012C23D0DC
:10097000022C3BD034B110BC7047C81EC0B2012855
:10098000F4D8F8E7264844684FF0010C0CFA01FC53
:1009900024EA0C04446044688A402243426082682E
:1009A000490003248C4022EA04028260826803FA30
:1009B00001F10A438260DEE71A4844684FF0010CF7
:1009C0000CFA01FC24EA0C04446044688A40224387
:1009D00042608268490003248C4022EA040282605B
:1009E000826803FA01F10A438260C4E70E48446852
:1009F0004FF0010C0CFA01FC24EA0C04446044683A
:100A00008A40224342608268490003248C4022EAE3
:100A10000402826082688B4013438360ABE700BFAF
:100A2000000002400004024000080240034620B9D2
:100A3000A1F10D00C0B2022806D9012B05D0012B6F
:100A400018D0022B26D02BB17047C81EC0B2012887
:100A5000F5D8F9E7174BD86849004FF0030C0CFAAA
:100A600001FC20EA0C00D860D86802FA01F10143C9
:100A7000D9607047104BD86849004FF0030C0CFA4E
:100A800001FC20EA0C00D860D86802FA01F10143A9
:100A9000D9607047094BD86849004FF0030C0CFA35
:100AA00001FC20EA0C00D860D8688A400243DA6072
:100AB000CAE700BF000002400004024000080240F4
:100AC000034620B9A1F10D00C0B2022806D9012BBE
:100AD00005D0012B16D0022B22D02BB17047C81E97
:100AE000C0B20128F5D8F9E7144B58694FF0010C52
:100AF0000CFA01FC20EA0C00586158698A40024354
:100B00005A6170470E4B58694FF0010C0CFA01FC0A
:100B100020EA0C00586158698A4002435A617047C4
:100B2000084B58694FF0010C0CFA01FC20EA0C004C
:100B3000586158698A4002435A61CFE70000024079
:100B40000004024000080240012829D002284DD0AC
:100B500000B17047072911D8374B186A01F0070117
:100B600089004FF00F0C0CFA01FC20EA0C0018620F
:100B7000186A02FA01F10143196270472E4B586A54
:100B800001F0070189004FF00F0C0CFA01FC20EA7C
:100B90000C005862586A02FA01F101435962704729
:100BA000072911D8254B186A01F0070189004FF079
:100BB0000F0C0CFA01FC20EA0C001862186A02FA09
:100BC00001F10143196270471C4B586A01F007019B
:100BD00089004FF00F0C0CFA01FC20EA0C0058625F
:100BE000586A02FA01F1014359627047072911D886
:100BF000134B186A01F0070189004FF00F0C0CFA33
:100C000001FC20EA0C001862186A02FA01F10143A3
:100C1000196270470A4B586A01F0070189004FF0CA
:100C20000F0C0CFA01FC20EA0C005862586A8A404A
:100C300002435A628DE700BF0000024000040240F8
:100C40000008024010B50E4B1B784BB900F0DBF9E1
:100C50000C49142000F0E8F9094B01221A7010BD6C
:100C6000094C2078094B03EB800000F039FA054964
:100C7000142000F0D9F923780133DBB22370EEE7BA
:100C8000E8010020910C0008E9010020EC0100209F
:100C900010B500210846FFF74DFD1F4B00221A70CA
:100CA00010E01E4951F8221040F6FB02914206D88E
:100CB000012199401A4802780A43D2B202700133E6
:100CC000154A1370144B1B78072B11D803F111022E
:100CD000124951F8220040F213518842E1D8012212
:100CE0009A40D24352B20E4801780A400270E6E7B9
:100CF0000C4B1B6803B198470024094B1C700A4B2E
:100D00001C700A4B1C70054B1C6000F083F901211C
:100D10002046FFF70FFD10BDE0010020EC01002090
:100D2000E1010020E4010020E8010020E9010020A9
:100D300008B5062000F02EF806490020FFF736FD22
:100D400000210846FFF7DAFC01210020FFF706FD2D
:100D500008BD00BF450C000808B508B10C4A10607A
:100D60000E21012000F0F0F80021022000F0ECF844
:100D7000002211461046FFF7A5FD0122002108467A
:100D8000FFF754FE01210020FFF7D4FC08BD00BF8F
:100D9000E40100204FEA501C054951F82C3000F0C6
:100DA0001F0001228240134341F82C30704700BFDE
:100DB00000E100E008B501220C210020FFF782FDD0
:100DC00001220B210020FFF77DFD01220A210020D6
:100DD000FFF778FD012209210020FFF773FD0122B2
:100DE00008210020FFF76EFD012203210020FFF7FC
:100DF00069FD012202210020FFF764FD0122114656
:100E00000020FFF75FFD012300220C211046FFF7B1
:100E1000A3FD012300220B211046FFF79DFD0123B6
:100E200000220A211046FFF797FD01230022092125
:100E30001046FFF791FD0123002208211046FFF71D
:100E40008BFD0123002203211046FFF785FD0123BE
:100E5000002202211046FFF77FFD012300221946E0
:100E60001046FFF779FD08BD70B505460E46002413
:100E70003AE02A5D02F001020C210020FFF720FE7B
:100E80002A5DC2F340020B210020FFF719FE2A5D04
:100E9000C2F380020A210020FFF712FE2A5DC2F38E
:100EA000C00209210020FFF70BFE2A5DC2F30012E9
:100EB00008210020FFF704FE2A5DC2F3401203213F
:100EC0000020FFF7FDFD2A5DC2F380120221002001
:100ED000FFF7F6FD2A5DD20901210020FFF7F0FDA2
:100EE000642000F0C9F80134B44203D2024B1B78ED
:100EF000002BBED070BD00BF79020020114B1A68D4
:100F000022F480221A601A6822F080721A601A682D
:100F100022F001021A601A6842F480321A60094B0A
:100F20001B6813F4003FFAD0064B9A6822F00302C4
:100F30009A609A6842F001029A601A6822F40022CC
:100F40001A607047003802401F2920D803281ED895
:100F5000DFE800F0020910170D48036C01228A40F7
:100F60001343036470470A48436C01228A401343C9
:100F7000436470470648036B01228A4013430363AE
:100F800070470348436B01228A4013434363704711
:100F900000380240114B00221A601A681A601A6861
:100FA0001A601A681A601A681A601A6842F40072A5
:100FB0001A601A6842F480721A601A681A601A6815
:100FC0001A601A6842F004021A601A6842F00302BA
:100FD0001A601A6842F040021A60704700300140FF
:100FE000054BD860044B9B6813F0800FFAD1024B7D
:100FF000DB680B70704700BF003001404FF0E0230A
:1010000004221A6170474FF0E022136943F0020393
:10101000136170474FF0E022136923F0020313615C
:10102000704700000000000010B50C4600F0D8FD2D
:101030000DA3D3E9002300F067FB00F04BFE4FF057
:10104000E0235861002199611A6942F002021A6195
:10105000074B19700CB1074B1C604FF0E02213696D
:1010600043F00103136110BD00000000006AD84086
:10107000700200207402002000EB800000EB800072
:101080004FF0E023586100229A611A6942F0010290
:101090001A614FF0E0231B6913F4803FF9D07047C9
:1010A00008B500F09DFD0CA3D3E9002300F02CFB54
:1010B00000F010FE4FF0E023586100229A611A6997
:1010C00042F001021A614FF0E0231B6913F4803FE4
:1010D000F9D008BDAFF3008000000000006AD840DE
:1010E0004FF0E022536992699B1A034AA2FB032343
:1010F000DB080360704700BF1F85EB5108B50B4B41
:101100001B688BB10A4B1B7843B94FF0E0231A6977
:1011100022F002021A6100225A619A61034B1B6895
:1011200098474FF0E0231B6908BD00BF7402002000
:101130007002002008B501210220FFF705FF012100
:101140000220FFF701FF01210220FFF7FDFE01222F
:1011500008211046FFF7B6FB01220A211046FFF7CF
:10116000B1FB012209211046FFF7ACFB00231A4610
:1011700008210120FFF7F0FB00231A460A21012075
:10118000FFF7EAFB00231A4609210120FFF7E4FBE1
:1011900001210220FFF7D8FE01210220FFF7D4FE33
:1011A00001210220FFF7D0FE01220C211046FFF79B
:1011B00089FB01220E211046FFF784FB01220D213D
:1011C0001046FFF77FFB00231A460C210120FFF792
:1011D000C3FB00231A460E210120FFF7BDFB0023AD
:1011E0001A460D210120FFF7B7FB08BD38B50D46A3
:1011F00080B301282DD1072448E045FA04F202F01B
:10120000010208210120FFF75BFC01220A211046A0
:10121000FFF756FC0120FFF72FFF00220A210120D3
:10122000FFF74EFC0120FFF727FF013C64B2002CC2
:10123000E3DA012209211046FFF742FC0120FFF703
:101240001BFF002209210120FFF73AFC0120FFF7D4
:1012500013FF38BD0724EAE745FA04F202F0010261
:101260000C210120FFF72CFC01220E211046FFF774
:1012700027FC0120FFF700FF00220E210120FFF7CD
:101280001FFC0120FFF7F8FE013C64B2002CE3DAFA
:1012900001220D211046FFF713FC0120FFF7ECFEA1
:1012A00000220D210120FFF70BFC0120FFF7E4FED7
:1012B000CFE7000010B50446002204211046FFF7D6
:1012C000FFFB02492046FFF78BFE10BD780200208D
:1012D00010B50446012204210020FFF7F1FB02496A
:1012E0002046FFF77DFE10BD7802002008B50122E0
:1012F00006210020FFF7E4FB6420FFF7BDFE00227B
:1013000006211046FFF7DCFB0120FFF7B5FE0122A6
:1013100006210020FFF7D4FB6420FFF7ADFE00227A
:1013200006211046FFF7CCFB6420FFF7A5FE012243
:1013300006210020FFF7C4FB7820FFF7B1FE08BDAF
:1013400008B500210220FFF7FFFD0C210120FFF767
:10135000FBFD012206210020FFF7B4FA00231A4604
:1013600006211846FFF7F8FA012204210020FFF7B2
:10137000A9FA00231A4604211846FFF7EDFA0222C3
:1013800007210020FFF79EFA052207210020FFF722
:10139000DBFB022205210020FFF794FA052211460B
:1013A0000020FFF7D1FBFFF7F5FDFFF79FFF1120AE
:1013B000FFF780FF9620FFF773FE3A20FFF77AFFD2
:1013C0000520FFF785FF2920FFF774FF0120FFF7B5
:1013D00067FE08BD70B506462A20FFF76BFF0020A8
:1013E000FFF776FF0020FFF773FF0020FFF770FF85
:1013F0007F20FFF76DFF2B20FFF75CFF0020FFF73A
:1014000067FF0020FFF764FF0020FFF761FF9F20C8
:10141000FFF75EFF2C20FFF74DFF00240AE036F8AF
:101420001400C5B2000AFFF753FF2846FFF750FF2C
:101430000134A4B2B4F5A04FF1D370BD70B5064627
:101440002A20FFF737FF0020FFF742FF0020FFF7B9
:101450003FFF0020FFF73CFF7F20FFF739FF2B20E5
:10146000FFF728FF0020FFF733FF0020FFF730FFD2
:101470000020FFF72DFF9F20FFF72AFF2C20FFF70A
:1014800019FF002408E0F5B2300AFFF721FF2846D3
:10149000FFF71EFF0134A4B2B4F5A04FF3D370BD23
:1014A00008B500220F210220FFF70AFB184B1B781A
:1014B000DBB20C2B02D0182B15D008BD154B164AE9
:1014C0001A60164B164A1A60164B174A1A601748CC
:1014D000FFF780FF0023164A1370164A012111708E
:1014E000154A1370E9E70B4B144A1A600B4B144A68
:1014F0001A600C4B134A1A601348FFF76BFF002366
:101500000B4A13700B4A012111700B4A1370D4E778
:10151000E1010020180000208400002014000020B9
:10152000AC7D0108100000205723010004A102082F
:101530007B020020790200207A0200201C0000209B
:1015400044280008685501000441030808B5012338
:10155000064A1370064A13700020FFF76FFF00233E
:10156000044A1360044A136008BD00BF7B020020D8
:101570007902002018000020140000202DE9F84313
:101580008046FF210120FFF731FEFF270025072DB0
:1015900020D8114B1B78EBB918F805100020FFF785
:1015A00025FE4FF4FA60FFF767FD012606FA05F9FC
:1015B0006FEA090464B23C4021463046FFF716FE4C
:1015C00044EA0904E7B239463046FFF70FFE3544D6
:1015D000EDB2DCE7BDE8F883790200202DE9F041A7
:1015E000FFF7AEFEFFF7E6FBFFF7A4FDFFF786FC73
:1015F000FFF704FD3C48FFF7EDFEFFF799FB3B4882
:10160000FFF7AAFB01210220FFF79EFC02210846FA
:10161000FFF79AFC01220F210220FFF753F9012363
:1016200000220F210220FFF797F900220F2102204C
:10163000FFF746FA002201210846FFF743F901228D
:1016400011461046FFF7F2F90720FFF7A3FB01212F
:101650000846FFF753F826490120FFF7A7F80121B4
:101660000846FFF77BF801210846FFF763F84FF0C3
:101670000008454620E00135EDB22E461D4B1B68A3
:101680002B44DB79732B10D01B4B1C786CB9052CC9
:10169000F1D8194B1B78002BEDD1164B186830444C
:1016A000FFF76CFF0134E4B2F1E7134B1B789BB1F9
:1016B000114B00221A703D46104B1F78002FDCD0D2
:1016C00088F0010842460F210220FFF7F9F94FF494
:1016D000FA70FFF7E5FCEFE7094B1968094B18684A
:1016E000FFF7C2FBE8E700BF04A10208A11400084D
:1016F0004D15000818000020790200207B02002010
:10170000100000201400002070B54FF0FF0C4CF4C6
:10171000E06C1CEA11541DBF1CEA135594EA0C0F2F
:1017200095EA0C0F00F0DEF82C4481EA030621EA6A
:101730004C5123EA4C5350EA013518BF52EA0335A5
:1017400041F4801143F4801338D0A0FB02CE4FF057
:101750000005E1FB02E506F00042E0FB03E54FF087
:101760000006E1FB03569CF0000F18BF4EF0010E7F
:10177000A4F1FF04B6F5007F64F5407404D25FEA7B
:101780004E0E6D4146EB060642EAC62141EA55512E
:101790004FEAC52040EA5E504FEACE2EB4F1FD0C70
:1017A00088BFBCF5E06F1ED8BEF1004F08BF5FEAEE
:1017B000500E50F1000041EB045170BD06F00046A0
:1017C00046EA010140EA020081EA0301B4EB5C044D
:1017D000C2BFD4EB0C0541EA045170BD41F4801145
:1017E0004FF0000E013C00F3AB8014F1360FDEBF6A
:1017F000002001F0004170BDC4F10004203C35DA46
:101800000C341BDC04F11404C4F1200500FA05F3C8
:1018100020FA04F001FA05F240EA020001F0004269
:1018200021F0004110EBD37021FA04F642EB0601DF
:101830005EEA430E08BF20EAD37070BDC4F10C0409
:10184000C4F1200500FA04F320FA05F001FA04F2CD
:1018500040EA020001F0004110EBD37041F10001B9
:101860005EEA430E08BF20EAD37070BDC4F12005C4
:1018700000FA05F24EEA020E20FA04F301FA05F22C
:1018800043EA020321FA04F001F0004121FA04F2D4
:1018900020EA020000EBD3705EEA430E08BF20EAA4
:1018A000D37070BD94F0000F0FD101F000464000DE
:1018B00041EB010111F4801F08BF013CF7D041EA60
:1018C000060195F0000F18BF704703F00046520064
:1018D00043EB030313F4801F08BF013DF7D043EA35
:1018E0000603704794EA0C0F0CEA135518BF95EAEB
:1018F0000C0F0CD050EA410618BF52EA4306D1D172
:1019000081EA030101F000414FF0000070BD50EA90
:10191000410606BF1046194652EA430619D094EA1A
:101920000C0F02D150EA013613D195EA0C0F05D104
:1019300052EA03361CBF104619460AD181EA030158
:1019400001F0004141F0FE4141F470014FF0000010
:1019500070BD41F0FE4141F4780170BD81F000415D
:1019600002E000BF83F0004330B54FEA41044FEA84
:10197000430594EA050F08BF90EA020F1FBF54EA1F
:10198000000C55EA020C7FEA645C7FEA655C00F0BB
:10199000E2804FEA5454D4EB5555B8BF6D420CDD8C
:1019A0002C4480EA020281EA030382EA000083EA0F
:1019B000010180EA020281EA0303362D88BF30BDAF
:1019C00011F0004F4FEA01314FF4801C4CEA113105
:1019D00002D0404261EB410113F0004F4FEA033364
:1019E0004CEA133302D0524263EB430394EA050FEF
:1019F00000F0A780A4F10104D5F1200E0DDB02FA5E
:101A00000EFC22FA05F2801841F1000103FA0EF2F1
:101A1000801843FA05F359410EE0A5F120050EF1B7
:101A2000200E012A03FA0EFC28BF4CF0020C43FAE8
:101A300005F3C01851EBE37101F0004507D54FF0F5
:101A4000000EDCF1000C7EEB00006EEB0101B1F545
:101A5000801F1BD3B1F5001F0CD349085FEA30008B
:101A60004FEA3C0C04F101044FEA445212F5800F96
:101A700080F09A80BCF1004F08BF5FEA500C50F133
:101A8000000041EB045141EA050130BD5FEA4C0C16
:101A9000404141EB0101013C28BFB1F5801FE9D273
:101AA00091F0000F04BF01460020B1FA81F308BF96
:101AB0002033A3F10B03B3F120020CDA0C3208DD62
:101AC00002F1140CC2F10C0201FA0CF021FA02F13D
:101AD0000CE002F11402D8BFC2F1200C01FA02F1AD
:101AE00020FA0CFCDCBF41EA0C019040E41AA2BFD2
:101AF00001EB0451294330BD6FEA04041F3C1CDA9A
:101B00000C340EDC04F11404C4F1200220FA04F0B9
:101B100001FA02F340EA030021FA04F345EA030163
:101B200030BDC4F10C04C4F1200220FA02F001FA25
:101B300004F340EA0300294630BD21FA04F02946A7
:101B400030BD94F0000F83F4801306BF81F4801140
:101B50000134013D4EE77FEA645C18BF7FEA655CB3
:101B600029D094EA050F08BF90EA020F05D054EA85
:101B7000000C04BF1946104630BD91EA030F1EBF8A
:101B80000021002030BD5FEA545C05D1400049418E
:101B900028BF41F0004130BD14F580043CBF01F581
:101BA000801130BD01F0004545F0FE4141F4700167
:101BB0004FF0000030BD7FEA645C1ABF1946104642
:101BC0007FEA655C1CBF0B46024650EA013406BF43
:101BD00052EA033591EA030F41F4002130BD00BF02
:101BE00090F0000F04BF0021704730B54FF48064BF
:101BF00004F132044FF000054FF0000150E700BF40
:101C000090F0000F04BF0021704730B54FF480649E
:101C100004F1320410F0004548BF40424FF000018B
:101C20003EE700BF42004FEAE2014FEA31014FEACE
:101C300002701FBF12F07F4393F07F4F81F060511D
:101C4000704732F07F4208BF704793F07F4F04BF68
:101C500041F40021704730B54FF4607401F0004545
:101C600021F000411CE700BF50EA010208BF7047A5
:101C700030B54FF000050AE050EA010208BF704796
:101C800030B511F0004502D5404261EB41014FF4FF
:101C9000806404F132045FEA915C3FF4D8AE4FF007
:101CA00003025FEADC0C18BF03325FEADC0C18BFEA
:101CB000033202EBDC02C2F1200300FA03FC20FA3B
:101CC00002F001FA03FE40EA0E0021FA02F1144488
:101CD000BDE600BF4A0011D212F5001211D20DD597
:101CE0006FF47873B3EB62520ED44FEAC12343F022
:101CF000004343EA505323FA02F070474FF00000CC
:101D0000704750EA013002D14FF0FF3070474FF07A
:101D10000000704730B51446002C9BB005461A46AB
:101D200005DA8B2303604FF0FF301BB030BD4FF45A
:101D30000273ADF80C3014BF04F1FF332346029355
:101D400005934FF6FF7300910491ADF80E3069468C
:101D50001E9B00F07BF8431CBCBF8B232B60002C28
:101D6000E3D0009B00221A70DFE7000007B5009364
:101D700013460A46014603480068FFF7CBFF03B04D
:101D80005DF804FBC0000020014B1868704700BFDD
:101D9000C00000202DE9F0478E681F46BE420B6848
:101DA00082460C4690462DD8B1F90C2012F4906F63
:101DB00026D06569096905EB4505A3EB010905EB2B
:101DC000D5757B1C4B446D109D4238BF1D46530595
:101DD00027D5294600F0B6FB064660B321694A467E
:101DE00000F036FBA38923F4906343F08003A381C2
:101DF000266165614E44A5EB09052660A5603E4657
:101E0000BE4200D93E4620683246414600F0B4FA50
:101E1000A3689B1BA3602368334423600020BDE8B4
:101E2000F0872A4600F01AFC06460028E0D1216916
:101E3000504600F01BFB0C23CAF80030A38943F086
:101E40004003A3814FF0FF30E9E700002DE9F04F98
:101E500098468B891B069DB007460D46144610D543
:101E60000B6973B9402100F06DFB2860286130B91F
:101E70000C233B604FF0FF301DB0BDE8F08F4023D6
:101E80006B610023099320238DF82930CDF80C8055
:101E90003023DFF89C818DF82A304FF0010923466A
:101EA0009A4613F8012B0AB1252AF9D1BAEB040B93
:101EB0000BD05B46224629463846FFF76BFF0130C0
:101EC00000F0A780099A5A4409929AF80030002B32
:101ED00000F09F8000234FF0FF32CDE905230AF187
:101EE000010A049307938DF853301A935446052240
:101EF00014F8011B4E4800F05BFA049AD8B9D006DA
:101F000044BF20238DF85330110744BF2B238DF895
:101F100053309AF800302A2B15D0079A54460020E7
:101F20004FF00A0C214611F8013B303B092B4BD9ED
:101F3000B0B1079214E0A0EB080309FA03F31343CE
:101F40000493A246D2E7039B191D1B680391002B43
:101F5000BBBF5B4242F0020207930793B8BF0492F3
:101F600023782E2B0AD163782A2B32D1039B1A1D9A
:101F70001B68039243EAE37302340593DFF8B4A0CD
:101F800021780322504600F013FA38B1049BA0EBED
:101F90000A004022824013430134049314F8011BC9
:101FA00025488DF82810062200F002FA002836D0C5
:101FB000224B1BBB039B073323F007030833039318
:101FC000099B334409936AE70CFB02320C4601205B
:101FD000A8E700230134059319464FF00A0C204668
:101FE00010F8012B303A092A03D9002BC6D00591ED
:101FF000C4E70CFB012104460123F0E703AB009387
:102000002A460F4B04A93846AFF30080421C06460F
:10201000D6D1AB895B063FF52DAF09982CE703AB12
:1020200000932A46064B04A9384600F079F8EDE7FC
:1020300004E103080AE103080EE1030800000000C0
:10204000951D00082DE9F047164698468A680B69E9
:10205000DDF820909342B8BF1346336091F84320D7
:1020600007460C460AB1013333602368990642BF24
:10207000336802333360256815F0060506D104F194
:10208000190AE36832689B1AAB4226DC94F84330A5
:102090002268003B18BF012392062BD404F14302AF
:1020A00041463846C84701301ED02368226903F0F4
:1020B0000603042B02BFE5683368ED1AA3680CBF62
:1020C00025EAE57500259342C4BF9B1AED1800264A
:1020D0001A34B5421AD1002008E001235246414685
:1020E0003846C847013003D14FF0FF30BDE8F087D4
:1020F0000135C6E7E1185A1C302081F8430022441C
:1021000094F8451082F843100233C7E701232246B2
:1021100041463846C8470130E6D00136D9E70000CD
:102120002DE9FF470F7E0C9E782F914680460C4686
:102130009A4601F1430207D8622F0AD8002F00F017
:10214000DD80582F00F0C38004F1420684F842700D
:102150003AE0A7F16303152BF6D801A151F823F05B
:10216000B9210008CD2100084921000849210008B3
:102170004921000849210008CD2100084921000813
:10218000492100084921000849210008E3220008EC
:102190005B2200089B220008492100084921000811
:1021A00005230008492100085B2200084921000896
:1021B00049210008A322000833681A1D1B683260F9
:1021C00004F1420684F842300123A8E03168236814
:1021D000081D30601E0601D50D6803E05D06FBD5C5
:1021E000B1F900506168002D78DA2D20002984F8BB
:1021F0004300A1602DDA5E486D420A231646B5FB06
:10220000F3F103FB1157C75D06F8017D2F46BB4272
:102210000D46F4D9082B0BD12368DF0708D52369B5
:1022200061689942DEBF302306F8013C06F1FF36B3
:10223000921B2261CDF800A04B4603AA21464046DE
:10224000FFF700FF01306FD14FF0FF3004B0BDE861
:10225000F08723F004032360CDE721683368080684
:1022600053F8045B02D4490648BFADB26F2F404813
:10227000336014BF0A230823002184F843106668E2
:10228000A660002EBADB216821F004012160002D38
:10229000B4D1002EB2D11646BCE7236843F0200328
:1022A00023603448782784F84570236831681F0616
:1022B00051F8045B02D45F0648BFADB23160D90764
:1022C00044BF43F0200323601DB11023D4E7284806
:1022D000E9E7236823F020032360F6E724480A2374
:1022E000CDE7336825686169181D30602E061B68CC
:1022F00001D5196002E06806FBD51980002323612F
:10230000164697E733681A1D32601E68626800211E
:10231000304600F04DF808B1801B606063682361AF
:10232000002384F8433085E7236932464946404616
:10233000D047013088D023689B0714D4E068039B02
:102340009842B8BF184681E70123324649464046C5
:10235000D04701303FF478AF0135E36803995B1A49
:10236000AB42F1DCEAE7002504F11906F5E700BF0E
:1023700015E1030826E10308884210B501EB0204C9
:1023800002D98442234607D8431EA14208D011F83F
:10239000012B03F8012FF8E7024401468A4200D1DD
:1023A00010BD13F8014D02F8014DF7E700000000E1
:1023B00001F0FF01102A2BDB10F0070F08D010F8F6
:1023C000013B013A8B422DD010F0070F42B3F6D1FA
:1023D000F0B441EA012141EA014122F007047FF013
:1023E00000070023F0E80256083C85EA010586EA6A
:1023F000010685FA47F5A3FA87F586FA47F6A5FAA6
:1024000087F68EB9EED1F0BC01F0FF0102F00702B1
:1024100032B110F8013B013A83EA010313B1F8D15C
:102420000020704701387047002D06BF354603383D
:10243000073815F0010F07D1013015F4807F02BF76
:10244000013015F4C03F0130F0BC0138704700BFC7
:102450000A44914200F1FF3300D1704710B511F8E2
:10246000014B03F8014F9142F9D110BD38B5054633
:10247000002941D051F8043C0C1F002BB8BFE418D0
:1024800000F0E0F81D4A136833B963601460284611
:10249000BDE8384000F0DCB8A34208D92068211814
:1024A0008B4201BF19685B6809182160EDE71A4685
:1024B0005B680BB1A342FAD911685018A0420BD146
:1024C00020680144501883421160E0D118685B68AD
:1024D000536008441060DAE702D90C232B60D6E77A
:1024E000206821188B4204BF19685B68636004BFD1
:1024F000091821605460CAE738BD00BF800200207F
:1025000070B50F4E0C463168054611B900F0D4F88D
:1025100030602146284600F0CFF8431C03D14FF02D
:10252000FF34204670BDC41C24F00304A042F8D040
:10253000211A284600F0C0F80130F2D1EFE700BFC1
:102540007C0200202DE9F843CD1C25F00305083559
:102550000C2D38BF0C25002D064601DBA94204D9FD
:102560000C2333600020BDE8F883DFF8D48000F04E
:1025700069F8D8F800301C4644BB29463046FFF7BE
:10258000BFFF431C044658D1D8F800402746002F0F
:1025900043D1002C4BD023683946304604EB030965
:1025A00000F08AF8814542D121686D1A29463046EB
:1025B000FFF7A6FF01303AD023682B442360D8F8F8
:1025C00000305A6862BBC8F800700FE02268521BE6
:1025D00020D40B2A17D96119A342256018BF59606E
:1025E000636808BFC8F8001062514B60304600F0C5
:1025F0002FF804F10B00231D20F00700C21A1CBFA6
:102600001B1AA350AFE76268A3420CBFC8F80020B2
:102610005A60EBE723466468AEE73C467F68B6E75E
:102620001A465B68A342FBD100235360DEE70C230C
:102630003360304600F00CF894E70560D6E700BF41
:1026400080020020014800F047B800BF840200204B
:10265000014800F042B800BF840200202DE9F0419B
:10266000804615460C4621B9BDE8F0411146FFF7FA
:1026700069BF2AB9FFF7FAFE00242046BDE8F081C1
:1026800000F02CF88542064602D8B5EB500FF4D87E
:1026900029464046FFF756FF07460028ECD0B542D2
:1026A0002A46214628BF3246FFF7D2FE2146404641
:1026B000FFF7DCFE3C46E0E738B5064D0023044654
:1026C00008462B60FDF7AEFE431C02D12B6803B118
:1026D000236038BD200100207047704751F8043C4A
:1026E000181F002BBCBF0B58C01870475374616390
:1026F0006B206672616D653A0A000000205230203E
:102700003D2020253038580A00000000205231209A
:102710003D2020253038580A000000002052322089
:102720003D2020253038580A000000002052332078
:102730003D2020253038580A000000002052313258
:10274000203D20253038580A00000000204C52203F
:102750003D2020253038580A00000000205043203A
:102760003D2020253038580A0000000020505352E8
:10277000203D20253038580A000000004653522FD3
:102780004641523A0A0000002043465352203D2061
:1027900020253038580A00002048465352203D205A
:1027A00020253038580A00002044465352203D204E
:1027B00020253038580A00002041465352203D2041
:1027C00020253038580A0000204D4D464152203D0A
:1027D00020253038580A00002042464152203D2032
:1027E00020253038580A00004D6973630A00000044
:1027F000204C522F4558435F52455455524E3D2070
:10280000253038580A0000005B48617264466175E3
:102810006C745D0A000000005B4275734661756C64
:10282000745D0A005B55736167654661756C745D24
:102830000A00000000000000000000000102030484
:1028400006070809898E8C9A79645D4E5B6D837FDB
:10285000909698A5ADB6ACB4B7B1A3A0826D6E5BEF
:102860005A5B5C6258687473807F7370756E6A67B8
:10287000634C534E576C6D7F7F8B888C8983806F40
:102880007D8B888E9383868B8F9D9E969182848587
:10289000776E646763737377868788878B9AAFB820
:1028A000C2C6CCC2C6C2B8B5A9B0AD988C6E5849E4
:1028B00034373733424E586A738AA5B5BEC5C3BD97
:1028C000BAA88A735C4F4E413F3C3E4E5D636C79C3
:1028D0007E849190939F95918B7A79777C7F7F8688
:1028E000807F796B6D646B75787D807A777D849558
:1028F0009A9D9096897C7C747B7D878E9695948F2B
:102900008D8A8E8C81807564695E5D636361636F9F
:10291000697C847D7679727174686B626E736A6E9D
:10292000737C7B8E8F8E938F827A7062717E8482AD
:102930008E9B9FACABA9A39DA18C8A7D6C676868B8
:10294000697A84929CAFA8ACB6B0AEA9AB9EA09CAD
:10295000897C6F6B666C7170686E7568727678844E
:102960008E8987928B858484847E7970665C5D53C2
:102970005662666B73878D9DA49D9D8F7A726C677E
:102980005F575D65606869737B8A8F909B8F8E83CC
:1029900087808087868B88817B8990979399A0997F
:1029A0009A877E776D6E67626365657C7A798680CB
:1029B00089837A7271736F6D676B6E78777E827EB2
:1029C0007E726F696866757976817A808783888C74
:1029D0008D93908E978C92908D9893918E939190E9
:1029E0008E8C85817D777E7B7D7E7D848A929CAA7C
:1029F000AEB8B0A09B8A7D6F695F60637075727FAF
:102A000085969F9B938B857971686364695D5E6130
:102A10005F6D6D797B82858F988C95928A90837794
:102A20006F656D75747A77736F6769666C6C767AAB
:102A3000787A7F909093969693908777726F787953
:102A4000858A878E8A918A8781796E6C605C6C65D5
:102A5000686F76797F84888B8A8B857D7D776C68BB
:102A6000696973706F6F7881889D9894928D807773
:102A70006E696A6C76747F8C969C9DA1A3A49F99C5
:102A8000928E86828A8C847D888D919B918E908E89
:102A9000898589888A838179706E6E707478738570
:102AA0008B83828287898E8D8B88848482838179CF
:102AB0006C665E53524D535A656B7A8F97A3AAB0DA
:102AC000A9A095877C756B63686E6F676B717A825E
:102AD000848688847C7B7B797577787C7B797B8422
:102AE0008C8E90919A988D847D726D6D66676B6DFA
:102AF000768987898A86877D776F6E706C69666B49
:102B000072787C838282847B7778777888868D90D0
:102B10008A8D8C8B8988878D817E7C80807C848364
:102B20008589888B929193928E908A858680848005
:102B300084888A8D8F98A0A79D978A756F62585751
:102B40005B5D686B6E8185919799989C9A93887C60
:102B50007772746B6C64606A6C6E71797D8482824A
:102B60008E898B89807C777E81837A80827E817C4E
:102B700079727576787C7E7B7F82828C8B8C867B6B
:102B8000776C6F7573757C7E818C908F8788827E61
:102B90007A747270726E757D838484868B93958D42
:102BA00080787269686A676263676570787F8E96FD
:102BB000929FA19996877D797C8080797C83848F90
:102BC000959692948E8989827E7A7A72727D8284B9
:102BD00086898C8D94928E8A89888B8E887F777572
:102BE000727676747276706E73777B7A7A7B81896F
:102BF0008E8E8E8F8B8A8C8279726E6B6C6E7577EF
:102C000080858A9AA09C958B7E7971706B666667C9
:102C10006A747A7E868D8F93938D8B8279757A7A9A
:102C200078746E6E6B737B7E7F827F82827A797519
:102C3000716F6E6D75767C82818D9094968D89878B
:102C4000838385817775777B7E807F837F767577B9
:102C50007B7E7C7B83888B8D88838688888D8C8522
:102C6000857D817F7E88878B8A8E9091928C7C81F6
:102C70007E767A716E6A6B727A8285888E94928D76
:102C80008E847D746F6F6B6E736D717E828F919287
:102C9000918E90888579726E6F6E6C70717C7B807E
:102CA0008D8B92928A8A8A8A8D898382777E7F80B1
:102CB0007E7A7776766D6F6F757574797E7B7E7DA3
:102CC0007A84848888837A727377757C7B7B808032
:102CD00083838487887F837B76797270727881881A
:102CE0008A8B8A94979B918B87787873736F7874AB
:102CF0006E6D69879BA6A6A2A59B978A847574743E
:102D000079806D736863636B798A8F909793948DE4
:102D10008E877F898A8F8A837D7177737E89888386
:102D2000817F71808C9299979E9996897E6F666457
:102D30005F716B71706B7573676769525850495258
:102D40004D50545D65798C8F8D919DA19EA0A3A25D
:102D5000A09890918C91878F9C8EA3AEB0AFAAA0C3
:102D60009C96817C75717677777778797E83848B72
:102D70008B8886867D75777471776D71797B7870B5
:102D8000808586818583857C79756A6861676E6BCD
:102D90006F79747D787474797B787B858483818284
:102DA000838486827B797B67666E706873767C80AD
:102DB0008488A6A37D8B858281747B7882858387B6
:102DC0006B9293808DAB94758F7D91867C83878B7E
:102DD000868994A5A0A9AAAEB3B2B3AAA69F9E9CC9
:102DE00091898A857F7C736C685C58524A5049454A
:102DF0004846474748403837312929322A31383A3E
:102E0000464A4E5760636368747B787D868E9198DE
:102E1000A0A4B1B8B5BEC8C9D4DEDEE2E7E7E8DDFC
:102E2000DDD7D2D8D4C9C6CCC8CDC7C6C8BAB4A914
:102E3000A9A49A9F9EA0948D8A838078726D6966FA
:102E40005C5B5754544D4F463A382D283134313459
:102E500036323D3C383D3D39373A373B3B3D4043C8
:102E60004B5156595A636B777E868C8D8E8E8F8C24
:102E7000878581827F7D7C7C7D8082868B898D8E1B
:102E8000928E92959498959297A2A4A5B5BFC0CE24
:102E9000D6DCDDE0DAD5D6CEC0BAB7AD9D9D9C9626
:102EA00096959595A09C9C9E9A9A949394908C89C3
:102EB000858587847F7C7C7775757171736F686C8D
:102EC0006663655C5755524943494E454554615EBA
:102ED0005D58585E534D4D53483940423C3F3B434B
:102EE0005C63636C80838183827E756E5C59595309
:102EF000575E66686A767E888E928E939284847915
:102F00007B7A777B8293909BA4B2BABFCCC6C5BBB9
:102F1000B0AAA6A0918F9486878E8A949DA2A4B50C
:102F2000B8AEB9BAB6AEADAF9F9A9B918D908F8A6D
:102F30008C97979AAEB2AFB6B5AFA89E8E939379A1
:102F40007A87887B808B8A888587878172716D6597
:102F50005251544A5F5E6F73859793A89AA5A28ECB
:102F6000877369544841393C35414C52575C66651A
:102F700069675B5946332F32402B3B4E565B5A7381
:102F8000757A706875685047504731566D6C8290FD
:102F9000979A968F8076655F554A5F5E6B708599CC
:102FA0009EABA8B7B5ABA398918273747874718502
:102FB0009EA89AAAC4C3B4ABAFA38E8BA2938D9BD9
:102FC000B1B4B8CACDD8DAD3CCCFC0A8A8A488836E
:102FD0008C8983898D93A6A9AAB5B6A69D97867A72
:102FE000776965666B6368757D928E95A1A39C8AEF
:102FF000878B89886872876D6D6C7F756C736B7B4E
:10300000726974766E626269646062687070726E12
:10301000747264685E534D463F3B3E3B383F444FBD
:10302000504C685F5E63647E8773769A9A868A9452
:10303000838578606D745A56655A52595B606F6B20
:103040006F7678706E706F6F625C5E5D5659616905
:103050007175787F9092828A8B909D9B9898AFA68D
:10306000A0A49EA396857D848880818997A49FA62D
:10307000B4BBB8B3B0A5A6928385817E7A7D7E83EA
:10308000817E858F8E7E8B92868E9BA9AFB8BBC2C8
:10309000CFC9C1C4B8AFA8958E8D86798589899826
:1030A0009A9AA1A79C9594817564585758595B6862
:1030B0007081847F8B938D8389929FA695949CA326
:1030C0009D9181726D6451494B4C545F73788A991C
:1030D0009CA39E978A8070695E4D443C3843474864
:1030E00051606269746D7284867B8B8C8180786498
:1030F000636B5F5D5D555C6B6D78807F8B8F8D8FB3
:103100008876706D5A5952404042424B5657585932
:103110005F5F6C7482908D9695979EA199908D8B30
:10312000858681747678838F9B99949D9E9B9A8BDC
:1031300081766D64646661666C757D83808382814F
:10314000828A97999B9A9BA2AAABABA79B949495D2
:10315000999A999CA3A1A4A6A39C989796979392B9
:103160008B8C8C8687867C767370727273787C8287
:10317000888A919490909492949795989C9CA0A200
:10318000A0A4A19FA0A49C9C9A8C88847975746249
:103190005C5C53545C5D6067686A6E7075767575CB
:1031A0007A788383889394928E918A8B83817C7DB5
:1031B0007E7C7A7C7A75756E6B64635E5F605F5E41
:1031C000666B696C716E6C6E666D6E6C6A6B6C7042
:1031D00072737F817E817F7D89888487827A76720F
:1031E0006C6E676569636971707883827F827E7BAC
:1031F0007A73726F69677076757A7E7F848A878F3B
:103200008E8988867F7E868080807F7E8387889077
:103210009395958E8B8882807C73706866636768EF
:103220006B676D77707D81828B9899ABB2B3B4B2C6
:10323000ACA39E9192867E75747077787E8A878D16
:103240008E8B84887F7E78756F696A696760777B0B
:103250007E8791939CA3A1A7A4A297938A87807845
:103260007F80828989848684808B8A837F7A797241
:1032700070727574766D71736B656F717584868C01
:103280008C8D8C8D8C8F85827E7A727372757B7E2D
:10329000808088878D8A9697968E8A867A746967E9
:1032A000645E59565A6668747C7C7C85858A8F8FEB
:1032B00092919496928F9388898487766560525A0A
:1032C000768E8D999F9792868283877E7D8268779E
:1032D000716576737B847F7C949989828365596458
:1032E0005F5B6F7C7F7F7C8E9A94989994908A879D
:1032F000837E726C6863667F808795A193888677EA
:1033000067727661847B98BAA7B1B49D9B9A8F85CA
:103310007B6C6B6C5F62635C565B9493729B8C7F7F
:103320007C82512E4A46697680A295AEBC9AA889C5
:1033300094A49A896569615972807D8893B2A0BF0F
:10334000C48B7E6769666945382B234381A1949EAF
:10335000949A848469636D88CFD9D3B4947160568C
:103360005B7E9DA19991657665484931636A526992
:103370005C6581728974718791CBD5C9B19C878551
:103380009291919EA2899383644546585072757EAE
:103390008482705A5B636C7293A4937F685E7386B9
:1033A000ACB7C5AB909A7C79737A9176796D60549D
:1033B0003C546DA9A9C2A99C9B8190727F768B8693
:1033C0007E7E6A58333935659ABEC3ACAD8E7F7A3E
:1033D00067535858626E808380A9B8C9C8B495975E
:1033E0009A94A1835F413753676A705E454A4C4D9A
:1033F0008D90A3A49398838B726C7485939083872C
:103400008892A2AAA69E8D7C8481917C59543957BA
:103410007D74886F665F5A636B84A9B9BCC29E9E37
:10342000967E7573686B67696F7A877F766F83970F
:10343000B1ABA19B806A716067716A756D847970A8
:103440006E6F92A3C9C9A7AC846D654D616E6A6346
:103450006F838A94937C7B7F8F968A867D7C75842C
:10346000858C796763505E59646A789EC2C1A5965F
:10347000897B788186897C7A777D8D8D877664706B
:103480006F6E727A848D999184707A737970635CAF
:103490005A5155829BC7C4BB9D8987767C6A6868F0
:1034A000648094908980727D8183877A766D7D7542
:1034B0007E7A8092858F6F64646A6673889AB1ADF4
:1034C000A5857F787D7D6F79747D8788968E8E8BBC
:1034D0007E85767171656E787477747D8E858D8248
:1034E000747B796D616A648C9BAC9E929578897DC2
:1034F0008C81838C8C94918B7A80787F77726A6BC5
:103500007F6E6E67777C6D6C5A5D6A737A85859085
:10351000888D9999AA998F929198928E878A969E72
:10352000997E7E72706B645C6267656E5D6E6F75AE
:103530007B747E83837F82888A8B87837D8B857E65
:103540007A8394949D8F908887877D7575757B7637
:1035500075837A807B7B88797A7466757B838390A8
:1035600088887A767978887680797976776F6F7FB0
:1035700088948E928C8B878F9086948A84787486B8
:1035800071777772757A7D808D82827D7B716F71A4
:103590005E60696F7B81868C8C94958989898A8924
:1035A00086807B887D7C72838A7988747C7B828527
:1035B00082836F746F7676838B837E7D897D8D8821
:1035C000878E8C9076787674737A78818A7D85740C
:1035D0007B85797B75727A7A7E85828185918F80F1
:1035E0008B7A786F76888090898B848583848282B9
:1035F000877B7A767D7C6F716E7C787E7E76818526
:1036000095889384868083887B887D8170737579A3
:1036100083848F8E91848179696D6B6B70868483CE
:103620007D7A8A818989888A8E9088827C7D7C8057
:103630007A7F867E8079817D848979797477767BBB
:1036400079807E8183849188897E83857C8176766A
:10365000777B7D7C868484818680878478756E768E
:10366000717C7E81868D8E8686807D7D7F84888B31
:103670007E7E71747D79867D8285877A828179727A
:10368000727B717E73706E758388928F908E8D8E33
:103690008687808388868486897D7E77857D828003
:1036A000707673766D79777C7D8387899081827A55
:1036B000758184878483888D7F7C7F6E767B84820E
:1036C000898881776D77717B7A7C838B878C8A82FE
:1036D000898D8E878A8C79706D71757981808885E6
:1036E0008D80847F7A7B78736D7B6B706B79808043
:1036F0008B83868E9290909187878389848483744C
:1037000078727D77857E7C81837B6A6E67676B7C50
:103710007A848A84817C8182828A858C919088884F
:10372000867F83868E838C827A7071747275727ACA
:1037300076827E7E8480838B8D83888A7A7F777F72
:103740007F7B7E777B7C87828985868683847A7D72
:1037500076736F737C7D8D86858C91898185747776
:1037600078827F85837C766B7B7D82848687887E6A
:103770007C7A7675778685828C8078737D83818963
:10378000878C868E8A827D7C7A7D81808A817C7618
:10379000757C7777766E707579778283888A929256
:1037A0008D9188897F858282857C80848783817ED4
:1037B0007871727A7377716F676C837A8B8B8D896E
:1037C0008B8784888188868E8A8D847B706B7979DB
:1037D0007C838486898B837E7A756D71757381771E
:1037E0007C75808D838982818286848684858383AB
:1037F00084828981807B777F7D7C7A75767B7F76FA
:10380000757A7274797A8484808F8A949D94948472
:1038100083797273787A80858D8E827F797D7275D7
:103820007F807E8388838785817E7D7C84827F7A8A
:1038300076737D878A84787B7474727A7E7F8284C3
:10384000827E7E746F707C858B94989F9FA1A09BD5
:103850008D7F7C6868675E5F5C5C738687979296F5
:103860008A82786769737576847F867B7B79788BAB
:103870009198A2A1A2A79A928475766C68666A69EB
:103880006B7672807E7F7D7975716E67656E777FEE
:103890008F8F989791948F869192959593918A871F
:1038A00081837A7B77726768625862606F7C7D8003
:1038B000858A7E7E8080838F9793928E8E7C7A71AC
:1038C000797F8A9F9AA39E9D9087706F70605A5CE3
:1038D0005D535C616B7D8C9EA198998E8379807B12
:1038E00080848184847F7C88818B92969A908E8755
:1038F0007B7570695B605F5D5F7371767C85918EAF
:10390000A094968B827878747A84838A859080716B
:103910006B6A6F6E868A7E8D8885858683898783AC
:103920007C7D7D74776C7B7D8A9289878981767EA8
:10393000796F72736D6B7267686F72898CA5A7A8B7
:10394000AAA9A097998B867D79616B66616165777D
:103950007C8F908B8982776D726F6E74777D808794
:103960007D7B727E7F8BA19CA1A6A1908F8380809E
:103970007C7575726B65606674788A897D817873F1
:103980006C7B74787F848688847D8780898B919A0C
:10399000999D9F9D9898927D7369594C564F4A53B3
:1039A0005D7179898C9996959389868586858683BC
:1039B0008D85807C7A8384929C8D8C857D6F6766F3
:1039C0006A6B6468696C6D7B788C9AA0A79B978DF5
:1039D000846E6D716B6F747A7F8483847D747D7265
:1039E0007A7E7F858180838B848783827D807F72CE
:1039F000737685858A8E89938B89807A7B7B746DBB
:103A00006D6B6E646057666F7D969BA2AAA6A3A29B
:103A10009896958A837E716E68696C808D9A9D9464
:103A2000897E6E5B5F585A55565964666B7E7F90EF
:103A3000A0A9B1B3B1B1A7A39D948D837D79747909
:103A400073726E6A6F71726A7370716E6F6F767D6A
:103A50008287899D948E857E84838B918F929190AD
:103A60008D87848C887570665D504E4E5967758A57
:103A7000898D918D83858B848C87888886777776EE
:103A80007184869296A29F978B8781756D625E5333
:103A90005E5F61687383919BA1A5A49C938F847BD7
:103AA0007B797475808A827E7C7975717B736F7B7C
:103AB0007A727379828D8E8D94948E897F7B8A8EB3
:103AC0009697888A83746F7B7780837A7772685B36
:103AD0005C545B6A717D888A94A0ADACB4AEA9A534
:103AE0009A878779706D64726F817A8687837F7811
:103AF0006C66615B615E666F716D757D8190A29A87
:103B0000A09CA7A5969095928D8B7D887E796D78E7
:103B1000787B7E6C6A665E4F545E676A727D8386D0
:103B2000858684838F8D9699928E9D9B939FA2A26A
:103B3000A49E8183786357464D555556616C6F7BC3
:103B40007D808A8A8A898C87888074676865627AB2
:103B5000778DA09FA6A5A2A5A88D8D8E7D6C675D93
:103B6000586A6981918F95958B878F8582807A6F4E
:103B7000675A555B525B5F6673837D758598A2AD0E
:103B8000A6A2B6A8908A85817F73797F8B8C8B8B58
:103B90008895897E7E847E796F6E715F52403F3A50
:103BA00050635B6F828C94A2A5B9C4B3B0B2AC98D9
:103BB0008A7276827A858C939593857F7F777161FF
:103BC0005B554E3F424748546C8C8C9DAEB5B1B8A6
:103BD000A3A1C2A89188818183645C7B807B7F776D
:103BE0008B8B757172727169626D6F787170747799
:103BF000747887839599929893797E9A92898E9119
:103C0000908F77667C797677707A80746E7A7E860C
:103C100085818283796B706C697C7F787D8F8C8BDA
:103C200099939196A09986797D786D625E79747486
:103C3000707B8C878B8E91959C928E8F8E887B76F5
:103C400070706C6A6F6C6E6B6D5D595562817B81B3
:103C500095A9A4AA9EA6B4A4A09493907C676C6E28
:103C60006D73768287837E7A79706C615E5D545164
:103C700054585B677798A5A6ABB6B9B2ABA1AAA416
:103C80008B817B796F676D71797B7C7D847D7D779E
:103C90006E68645B505C5C60686F717382919B9E20
:103CA000A7B4B7B6A8A0A0A0928F918883746E5BCA
:103CB000525555525E6A677168737A748388898A2F
:103CC0008C898A8286968D8D9292869489848D7D48
:103CD0008A847373746A6A68636E6D738082889471
:103CE00097928F878B887E7D787C797B78747E83B2
:103CF0007E80857F7D716A696871717E8B91999BE9
:103D0000978C938E898989807E786E70636E7B81B3
:103D100079858D80897D7B8E7C6C7E706A72637301
:103D2000827D8D92969C9D919C97878E7F7A7D79DE
:103D3000747D737A73738A6D6D84726E7668656B49
:103D400072736D80838AA18E96A19AA2A696A2A371
:103D500082877569705F607571676873765F647E6E
:103D600075818F7E9895778B9991847C938C868DC5
:103D70007E8A8879838F82857A6A847461676173A9
:103D8000735F848C7480747F9677859C7A79808E3B
:103D90008F707B90868F8489AA86798C85807860E5
:103DA00074756C6C61827D698091849087899C8236
:103DB000808D7E8098797FA0858799818A8D6B73AD
:103DC00076585B474A6131486654667A708F8977C6
:103DD000907A747A63605C6A74537895A9AEADBAD0
:103DE000C9B4A9BDA485A68E7D945E808F6C7BA688
:103DF000807A89798E855F696D6992806DA3BA9B9F
:103E0000CCD4D8F2CFD1DDB0B3A180A57D6E8B73B9
:103E100066716A6E665E6253544E49464F54354F22
:103E2000624A5364555D514350423927393C2F3D16
:103E30003F343C455064636C7873827F778198AEE1
:103E400096B7D1C1CADBD7DCE0DBE9E5D8D9DFD34F
:103E5000CED6D9CCCED4C2C3AE9B9E7B726C543A24
:103E600055511A54603E626F6A7D72748D74667724
:103E70006E635C5F5D4F5459514D46443C33362D63
:103E80002A1D36311649483A5B66636A6869796E5D
:103E90006986897A8A92899494A3ADA8ACB0A99CCA
:103EA00095857877907577AB958FAAB7AEACB3B59B
:103EB000BFACA9BCACA7B0B5B7B8C9D1CDDBD2CF28
:103EC000CBB5B3AA948EAC8C82B29B89A4A6989DE4
:103ED000968F8D7268695950565653535B6261696B
:103EE00065686760625F534F765044816C69839365
:103EF0008F888C8987756D7571585D5D47494D4711
:103F0000464F474644373530241E4331275C5C59C1
:103F10006B7E827D888C89837C7E81746A7A7469E9
:103F20007A7D7A8E8B838E79797B6C668A82629AAF
:103F30009F89A0B8C3C6C8DBDFCCD3C7C3CDB1BC93
:103F4000C6AFB9BEAEB6BBAFB3ADA69F90758F99E5
:103F50006185A78E99A7B7BDA9B4C8AEA8B6A8A316
:103F6000A19DA89A8EA5998E9F9A978F7F8372554F
:103F700056755D4371735E6C707474617876585ECB
:103F800060584A4B5B554C5C69706B717A6B5F6330
:103F900064574853624846615E5764797D736C7319
:103FA0006A5353544E474549453C43474E4F525D33
:103FB0005F5C67645F5E5E726360747170747A8167
:103FC00080797A837F7E8486848681868E9296A38A
:103FD000ADADB3B4B1AFBAB0B2AFB5BBAEAFA9A7D8
:103FE000ABA7A9B8B2B0ACADB1A6A2A9ABAFB0AE09
:103FF000AFB1A8A6A69EA497939A978D8E8690910E
:104000008A94909E9D979AA09394929795918C896B
:104010008F83807A7F7B75717A726C635C615D5B84
:104020005D5D61695C65656567686E767A787F7DE0
:1040300075797076847881827D7D776A726B65632D
:1040400066595741426239505346524D454F464595
:104050004E4858505B6362686B636F6E6E726F712F
:10406000716B64655E5D5756545862666068686837
:104070007A7E7F8896979C9D99A7A6A2B1B7B9B979
:10408000B1AEAEA2A0A0999A938B8F887D7F727CEF
:10409000807986828A8C83919BA0A6ACB7B7B1B297
:1040A000B1AFAEA6A9B1B0A7A7A69D9C94938D84ED
:1040B0007F79717B6E6A736B76797D8B8E909C9D18
:1040C0009DA6A9A6B0AAA6A89E97978A8A8B868C39
:1040D0008583847A6E6D6C716F7A7582897F918A1F
:1040E00093A2999CA8989794848681747B7667693B
:1040F0005E55584E4952484B4F44504E47515159C6
:10410000605F697675757C7B7A787475796F6C7091
:10411000696665646E6E6E7371736A6B636F6D6FE3
:104120007E7A8A87848D89858F8992928588837823
:10413000746C6970676A6B6B6C6662696A66696ADF
:104140006F726F707A7E818D929BA29D9EA1968EDA
:104150008F85857D7174746A6B676A6E68676D6B35
:104160006667617570737F88989EA0ACB9B1B3B172
:10417000B3B2B0A3A69B90898585838488908E90E6
:104180008C8C82807C908B8C9192A29B96A4ACA408
:10419000ABA0A3A29087887E7D75727C7471706ECF
:1041A0006D6C61625B5C52636A656D6A848E869435
:1041B000A5A0AE9F9FAA9E97969596928892918C65
:1041C0008B8C8F988A87827C6F6A70646864758133
:1041D0007B7D8C888F8E8798948985837D7A6E739A
:1041E000797778797C8076716C6A655F726B6968C3
:1041F0006D7A73707C7C7E7E727B7A6C676463669A
:104200005A5E63686B666B75756B6A6C6B646F7511
:1042100073747C8E96979EA6A6A7969190847872CA
:1042200070716D686C6E7376777F857C767069616E
:10423000636E697076808E8B8F979BA29D989A95FE
:10424000887F79716F68646A6D70777A7D7C73712D
:104250006E66636B6C6C747C8C9A9EA6B6BCBEBC9E
:10426000B5B5AA9C999191948D8A8C8A8A8784830A
:104270007C77726B6361666A717985949AA0A6AD4A
:10428000ABA5A89E9E9D8F908B85877F8186838915
:104290008D898277736D6254585F626D707E8B88F2
:1042A000909A97988E8682797268676A696D77822C
:1042B0008C8B8F95928B827D777063636969707345
:1042C0007C8890959EA49F968C8C84756E6D706E84
:1042D000616975767B7D8B938D88837F7B686A733C
:1042E00073747585908C898C908D827675776E69E4
:1042F0006B707573707E838583858C8C82807E78ED
:1043000077728389827E869098999C9FA1998A88EA
:10431000857A6F73747870717C7B76787B80827815
:104320007374756E6B6B7E8B898C989DA19292A62F
:104330009B8B888C9493828486867B6D6F74736B61
:10434000676B65616160625E5E6379837F8D9A9F52
:104350009F97949996988B84918489948A8F878467
:10436000897A6E68656557545F62665D595F7187CB
:1043700081809098A19488938E807D8990898D8F7B
:10438000929F958691938B7E73746D67645C615E7A
:1043900052554D6A7D717E8A919D928C9A938B8243
:1043A0007C81878F918E9F98939C918C867D80795C
:1043B000696866645B51515066726A73828A98902C
:1043C0008B9A989489828A837D828285898D95953E
:1043D000938A878980787473726A5D5F54557576A5
:1043E000727F82919986888E87837B7A82827D7D97
:1043F000848786898B8E908A91968E8F8986857C1C
:104400006D6A5A526B6C6876787C7F6F6F77696AD9
:1044100069697F7E81999B9EA8AAB2B2B1AFAAA119
:1044200097978A817E6F6F64595A485D6C535A5BC7
:104430005F6452525B665F64707A7F7C8C9AA2A341
:10444000B3B4B2C0B0B2C0B2AAAA989B8E727D6E4D
:104450005C5E4C576D52595D464F4532444B4C6241
:104460006378919093AAADA6ADA6B3BBA5B7BFB133
:10447000B0AAA69D9184886B6C66595C5D555C6A98
:104480005B695D666B64627A7D7488888E9496A0A1
:10449000A4A5A8A6A8ACAC98A59E9090878479788E
:1044A0006C70786A71745C686C575B5A5D605564B7
:1044B0006C6E7B8182979B95A9A398A792989F8702
:1044C000A89490A09A808E876C896C6F7B686370CB
:1044D0005E5B645B666F5D6D806E7886797B987AD3
:1044E00092A68D999F9D9198A497969F9C8E8D9052
:1044F00076806773725D6F6B57605B4B6A4C646765
:10450000697F81778A8776918E97A69B9BB19AA0C7
:104510009F9C959B87967F8287657F6C7268706889
:10452000646C646069636B686B707C777E8F819468
:104530008A95959A959A9F9E9D99A29A9794988DFF
:104540008E887F7876706467596557626868717382
:1045500071737C76847F808E8D889E8E9E9E99A8B6
:10456000A4A2A5998E9B79807F707271697261682F
:104570006C6671737B7C8174796C747271847E88D3
:104580008F8C8D8F8D929A98A49E969A887F84792D
:10459000797F80797B7275736879687174696B6EE5
:1045A000696D6A7A757C877E8E888D959794999BC4
:1045B000928E948E91838A878081767677737067E6
:1045C0006B6B5C66686F6F7E77807D7D7B838C8292
:1045D000898E918397948898908D978E8C8C868005
:1045E00085758176717D6D726F706A716871787290
:1045F000707672767A70867F81879090959A8F9880
:104600008E93878D8787847C8B798086787A7F7B71
:104610007576776C6C6C6D696F7379787D827F8845
:104620008B88888D8A968A928D848A848B8B8A83E4
:10463000918F7F8C7D7B7C7079796C6E6F637270EB
:1046400066757770737D7E81808288868790949866
:104650009996938E8D868680827D83817476726B27
:104660006E7072737B746C796C727372767A7C780C
:104670008B8A889291939799959C908E8A837A7869
:104680007E73827D7F8677757F74747D7D767A6395
:10469000616D5C707B79888C7A8083817F9494943F
:1046A00097968E91928E948D86827E787F78727A9C
:1046B0006F6D7363756E707179777A7675877D86A5
:1046C0007E89827F80808790929399989089858453
:1046D000857F7D7D7A6F7F767A7D7C7F7D85847C0A
:1046E0007E81778073747A75757D7E798483868EFA
:1046F0009193968B8B958286897F86827A7889784A
:104700007582787677736F7E76717B7C727980772D
:104710007F87848B8C828582877E8B8F8395918324
:10472000838A727C7C77827C7A767E787C7A797BCD
:10473000867C7E817476716C747D74867B807E88C5
:10474000838B918EA0949A9A9B898B787F767075D3
:10475000787A777A71777E7B6C7D707370796D6D06
:104760007272787A878D918E93868A898890988ADA
:10477000918A887E78757F86798272766F66657891
:10478000786D7D6E7376667D7E85908E8B938F7F40
:104790008B878E9994959A8E908D778685757B7E82
:1047A0006F76736B6E6C72717A7A787574717776D6
:1047B0008989819388838B8D87908A8D958B8B8750
:1047C0007D8380737573656F70687D79717A776D9D
:1047D0007979737B737980758186828588888F92D9
:1047E0008D9693919190968E908D8885787A768229
:1047F000828174747666696C6F737B777D786F7174
:104800006E6F837A82897A79797274877D858D81DA
:104810007F8075737B74757E776E7A6F728874850E
:104820008B828A827C878F888C8F86837D717B7F49
:104830008289918D928C8A958C909998969688828F
:104840008079777C757579727778757D777B7F76DF
:104850007C75797B757A8289948E89988F959894E6
:10486000969492928F857C7A797472686C6B6D6580
:10487000636463707476797E767E7877807D8088D5
:1048800087847C78787078757A8388868780787B4F
:104890006E73766D747C7079858498968E89897B29
:1048A0007A83868B87908B86858B7D838B84858CA2
:1048B00080879085857C7B6F7764736F6F847D893B
:1048C000847F797C75807F7E8280868982848D97C3
:1048D000968D83777169615566666B7C85848D8E54
:1048E00091999BA5A2A5A1A39D998A7B7C6F6666E1
:1048F000646E71726C738179706D6C6F828B8E8D4A
:1049000093868C96909097999195858776726F692A
:104910006C65716D73776E72747775787F8098901F
:104920007F837767777F81928F98A397939781840E
:1049300085868C7C6F777373726C757580837676E1
:104940007F717D797B838A8D8C92899395898B8108
:1049500076726F70696D707D7B91948E9E917F7879
:104960006F696A6E6D70777183858A8E8F8A8E8E7D
:104970008C8989827E7D797F8187848A7B6D74842E
:1049800072726D6E7E8183838E8B8A8484847F8530
:10499000837A787C78798F878C827473677D7F7D4A
:1049A0007D716E77797F8478817970736C787F8977
:1049B0008DA2A8AEAE91877B797B7C747470717682
:1049C0007575757D7973695B595F5D6372929EA79A
:1049D000B4ABA6A09A9DA1958C87807E82817B7CBA
:1049E000726C6959545E5B637F7F8A8C8A8E88867D
:1049F00085837C77747C839195A3A0938A7870706B
:104A000072717B8D9794897B7B73716A6468686728
:104A10006D737E8A8D968D887F7D848C8786918F3D
:104A20008985807F88878F8F7D77746F76757476A0
:104A3000746F686463687D8C879091919694949765
:104A400099958E786B69666E778281877F767067BD
:104A500067717A758185878D88888B8C88837F8341
:104A60008D929A9F9C897C695E62677A7D7D7E8645
:104A70008C8A8885817575747A83868D8C847F7520
:104A8000707A7E8D9086827B776D737A8698949209
:104A90008E8D87816C5C5D595E6368666F7072761F
:104AA0008C9DAFC2B9AE9F8E857F70736F72777D1C
:104AB000828A878074695854626572706D687281E9
:104AC0009BBDC6C1A88774696A7A898C8C85807BF6
:104AD0007C82837A6C64636765736B6F757D97A95D
:104AE000B1A7977B6E6B6C7B8A8D8C7F7D81868A6C
:104AF0008A877977736C6D716F6D6A697690A1A5FD
:104B00009F84756B6A727C91959BA09AA2969896E9
:104B100083796C6356564A4451638AAFB3AE92753B
:104B20005E515B6C819092979596A3A6AEAA9B84EA
:104B300074645D5450545E7790A1ACA28B765A5445
:104B40004E5A6F7F89949695A6ADACAA96806A5A04
:104B50004E535F729CB5C3B69E867464585C6063A6
:104B60006E6E6C76849193918476695D58606B86E5
:104B7000A1BAC2BBA79C978380726764625B636EB5
:104B800077878D8C79695B535256678096A3A69F71
:104B90009C9C949694888278706E777E83878A81B5
:104BA000706056505363758B98A3A29F9D93918C10
:104BB0007E78736E6E798894908E837164575457A3
:104BC000697B9299A19E9AA195918B7F6F675E5C9C
:104BD0006A798B9B9C9987786D65666F828B8F9ABB
:104BE0008D899490969082787166656C76828B8EB2
:104BF000897967635E656D86959BA49EA3A0A19C41
:104C0000928B6F656158656E797C7876675A5155DD
:104C10006668839096A499A6A6ACACA39F8B7F7779
:104C20006E6F7580857C766A6057515B5E7680809A
:104C30008A82888791958F968B8C8A818A8D9196AE
:104C40008F8A7B6A5F5960586F7C8295909A9A9E92
:104C50009D978D7E757068686C7177757674706BD2
:104C60006C787A808D8A9A94989A9C9F989A8A8276
:104C700078716C6E6973716E6D646561636C737E5F
:104C8000888D9A96989F9A9C97929089817675784C
:104C9000787B79767A716C6A64676B6C747F8288D2
:104CA0008D8E8E8E8889918F89878583837E7F7D87
:104CB0007B7B7A78737677797A7777797875797676
:104CC000767A7F828691959CA1A2A0978F87837C1C
:104CD00079726F7575706F6F6C6963616566696D08
:104CE000767D858E969B9A9C958F8A8D8E8E9191DE
:104CF000918E8E88847C77736D645E5C5F6363677E
:104D00006E70737981858A909098959199A09A9BFD
:104D10009289867C787677787E7D7977746D6D6CF4
:104D20006B6A6D6B6C73747982878B918C9194959F
:104D300096989392918D8A87817D7D76706E6A694F
:104D400069696D6F72737571747C8084878D9191C0
:104D50008F8F8E8E8D8D8C8A8B88878581848580C0
:104D60007C776B67655F5F636A717B80878E8F95E9
:104D7000948F8D8E8A898B8A898A89848178797EBD
:104D80007C7A76736F6C6F6F6F6E72736F6E7579FE
:104D9000808D959AA2A5A1A0988A8484827E7B7832
:104DA000787A79777678756F6A686562676A6F78FE
:104DB000838A929190939190908E919292918D8B03
:104DC0008781797777747074757272766E666B6DA1
:104DD000737477787B80868D9398999B98978B8353
:104DE0008277797A798184838384827A7976717102
:104DF0006E7173696E70707C81868D90908E8A8AD8
:104E0000868C8F8F8F85817D7E8284888986847E43
:104E100076706B6A6A6D706D7275777B7E85898E30
:104E200092918F8D8B8C898A8580817D7878777639
:104E300073787F7B7F83858283837E7E808181817F
:104E400080848285807C7D7B7D7A7776787B7775A0
:104E5000797779808382807F8080878B8C9194940E
:104E6000918C86817E7872747271737377787E8587
:104E70008788858688888A88898C888481797270F9
:104E80006E6B6C6F737A7F85898B90908B87827E37
:104E90007D7E7F80838484878A89898988848078DD
:104EA000726E6E70747877777679757980838B906F
:104EB00093928F8E8A86817B78767878787B7C7FD8
:104EC0008687868483817F7C77767577797A7A790D
:104ED00077797673787C7F81828788878C8B8A8AC2
:104EE0008C8E8E8C8988857F7D7D7C7978797774AE
:104EF000726E6F7171727478767576797A80889037
:104F0000969A9B9D9C948E87827D7B767471717539
:104F1000757B8081828583837F7C7C7979746F6ED9
:104F20006F6F72777A7E888D939794948F8B868338
:104F3000807F7B7C7F808488898889888A88857D3A
:104F40007676716F6B6D6F76797D7D797C7E8182EF
:104F50008484898D908E8D8F8D8D8C88817E7C7AD6
:104F60007A75727575737474737374777C7F8183CB
:104F7000817D7C7A78797C7F858A8A8F91939494DD
:104F80008F8B857E7974737476797C7B7B7E7E7D56
:104F90007C7B7A7C7C79787A7B7C7A7979787C7F67
:104FA00082858C91939793908D89847D77716E70B3
:104FB0007172777D848786827F7E7C7979787A7B2F
:104FC00080807E7E8180808182858A8E8E92909282
:104FD0008E89857F77706B66655F626A727980847F
:104FE000898A898D909496969897918A85817C7B01
:104FF000777572706F6D7070707376777374757586
:105000007D8282868A9094919395999896928E89C2
:1050100083847D746E695F5D5A5A606771777E83A1
:10502000888B8F92949695939291918F91928E897D
:10503000837D7974706D6F6F6B69686667696C6E7C
:1050400072777D878C969CA3A5A09D978D867E7593
:105050007073747377797B7C82828487867E7C7898
:1050600077797B7D7A7877716D6D6E737C858A91A7
:105070009396989B9794928E88817C7A7A777976AA
:105080007674736F6D69656A7175797F8387898EB0
:105090008E8E9290909495979598908A877B776E54
:1050A000635D595A5A595B6066717F848F959499F4
:1050B0009DA0A0A3A19E989089827C78716D706D4F
:1050C0006F7172727475727273747474777E828C7D
:1050D00092949B9F9EA09F96968F867B726E6A612C
:1050E000605F5C616368727B808A8C919291929020
:1050F0008D8C888385858180807C7D7C7E81807C91
:105100007A7C81818387848583807E7C79737074C7
:10511000777B7E7E7E7C7A7A77797D7C7F818383C4
:10512000888C8C8D91969796928C8C87817B7570EC
:10513000675F5A54575A5D6872818C939DA1A0A3F2
:10514000A19D9C9893908C827D776F6A6462616167
:105150006061656C747A828B8F909294949595942B
:105160009799948E88807B746F6965615F5E646BCC
:10517000707C86898A8E909598989393928E898276
:105180007E79726E6A6568676A727B838A9095968B
:10519000959491908C847E79716C6A6B6C6E71764B
:1051A00077787B7F879196959594928D8B86848571
:1051B0007E7B7A75737270706D6B6E6E6A696D71DD
:1051C0007A84898F96979A9CA1A19F9B958F897FBE
:1051D000736D676561626262676A70767D81878DD3
:1051E0009193949696958F8884807C77716F706E7A
:1051F0007276767A81868C91918F8E8C8884848267
:10520000807E7A7878797878757272757575777D21
:1052100081898E93949495949293938E89817872D8
:105220006F68615E5D5E6162667077818F99A3AD24
:10523000AFB2AFA9A6A196877A6F67615B52545748
:105240005863676A7479808A909CA6ABAEA9AAA8B5
:10525000A1998B7E72665D5750525458646870797C
:105260007D868C8F9AA1A5AAAEB6B5B5B6AA9D8F3C
:105270007B68523F36292A3439485A63747F8691B5
:10528000979C9E9E9F9B9B92857B70696459585FFB
:105290005C6B7A849BA9B3C4C9CBD0CAC8BDB1AD7D
:1052A000A099897B72645A5043434A4859656D7E80
:1052B000828B92959D9E9C9C94908A7F7C6F676167
:1052C000524E514A596C738A9198A09A99968E8C35
:1052D000867E7F7E807D7D7F76716A5C584F4146F9
:1052E0004E4C5D6A788B93A1A9ABAFACA5A29C9103
:1052F0008A868379757169656259606B6778829077
:105300009CA3ADB0B1B1AEA5A09C9791908D8382C6
:10531000796A635A4D4B5149545F6B7A8795A2B0B5
:10532000BAC8C5C9D0C6B7AE9D8A7D6A56493D2F59
:105330002C37353E505C707F8D98A0A1A59F9BA116
:10534000978E918A82807A70695D554C5758586A59
:105350006F7B888E929492949088908986908C909E
:1053600094928D877D7B68736D6574737C878A8B5F
:105370008B83867B75847F7E888391999D9CA09684
:10538000937E8D8A737D7681827D76866C6A63607A
:1053900070676F706E778E9DA4A69B9780788168EA
:1053A000716E706E6D695F605F62446574809F9F0F
:1053B000A3A7A9AEB6B0AF93818A76636658607032
:1053C0007D8787837E73808F838D94999BA3A2872B
:1053D000735F4548535D63798997A1A8AFACACA5CD
:1053E000A09CA08C887E6772787A75695C4A3C3F85
:1053F0004D47555C6A7489908C8E878C95A7979ED3
:105400009287898C8E877D75695F576A6365717134
:10541000929FA9ACADA39B909C89867E7C78777E79
:1054200073686455595F667C6E837D838B959DA3FD
:10543000A8AAA4B7ACA1A6918E8A8A847D70624D79
:10544000493D554F5B6C72808788897F767D808C63
:105450008B978D938D94968E88847067575D5C4E84
:105460005C617379858A928C8F96A39CA4999B9595
:105470009297868676635C534D5E47555B62778074
:105480009095969599A69C9D98909996A6A4A89B70
:10549000917B6F5E6C655D6A5E7470767F7B7D88E4
:1054A0009194938F86858082817F7C73615A4F4E61
:1054B0005F4D626E7E89959F9F97929D9796928B86
:1054C0008986878582806F6A615F5C7371727D7D7A
:1054D000868F99989D8FA4999296878686848886D0
:1054E00082776B605551586B647785989FADA8A8FB
:1054F0009BA5A2939D898A8584858682806C63534F
:105500004A3A4C3D4154515F6B76807E89A693ABFD
:10551000A3A9A5A3A1989387736F5F574A4D5947D5
:105520005F5F6F808D979E97BAA3A8AE9DA19AA149
:10553000969B92857568554F3E584A506467737FB5
:105540008A9296B4BCBBD1C4CABBBAA89E938368E6
:105550005E4B3F2E373A3755586C79848B8996A825
:1055600094A49C9791938E87898178716961565034
:105570006750636D6F7C838C878BA18E94968D971B
:1055800097A0979A988D7F7F726C576B5C586C6070
:105590006A6C70757690948E9C939B98A6A7ACB518
:1055A000B2A09F8F82665F624A5C52585E5F656000
:1055B00072857A8E9295999E9A95978E7F75695C81
:1055C0004D3C53414F5D62717D89889AB0A6ABA96D
:1055D000A4A7A1A79C9E99897F76686046594F53DE
:1055E00066627577838687A1A39EAAA1A7A0A39AC6
:1055F00092927F70705D5B46485F56707A8D9AA577
:10560000ACA6AFB69EA0968D8F87877E7B766A68A4
:10561000625B4F425A4E5965666F74797A81948FF6
:105620008A93939C9DA8A2A1A191857E6C60475608
:10563000585666666D6C73777A909C8FA2A1A6A36C
:10564000A9AAA6AB9F978D7565433C4F3F53595F01
:105650006770767A8DA8A4B8C0CBD2CAD1B8AE9FF5
:105660008977644E37243B343F545A6A717B838474
:105670009B968D9A949E94A2979195867A725E5489
:105680003C4A574F63687175818A8C9BA894A59F8B
:10569000A3A1A9A99F9F94877C6959433D5B4D6451
:1056A0006E717B87858A889A909198979C97A69728
:1056B0009EA39D9A967F775B6B5F5C6B6A70747C30
:1056C0007C778185738B83908D98928E92877C7680
:1056D000625B434C604E68696D72818188849D90E5
:1056E0009A9E9AA39EA6989B988B80725D4C405F71
:1056F000505D6B717B84858D8797A090A99DA3A237
:10570000A59993958D827C69654E5F66617A8086E6
:10571000909C97978C9B8A9492949598958D8B8565
:105720007871695D49445C4B5F61686F7C7F867D01
:105730008D8D89948C9192988D8F8A847B6F5C5922
:10574000455F61657A7D878E8F8D8C87988E989462
:105750009699958F8E8F928686786E5F626F61764E
:105760007A7D879391968992938F928D939490915D
:1057700088898076735B53495E545B6468737D826D
:1057800089888A9294958D929D9B99968F92807A22
:10579000655E4F595E59696C717B8386888D959AD9
:1057A000A09A9FA19E989C8F938880766755596692
:1057B000606E777F8B9490908687848E878C8B9495
:1057C000908D867F7E737161585265636A758082A1
:1057D00092919890918B8B86787675776E756873B9
:1057E00069645D56495A6262727E8296989A9E9D5D
:1057F000A69FACA2A7A1AA9FA79B9C978C8570632C
:10580000636E69747D868B948D968890838A8A8373
:10581000828B878583767A6C6E5C54515F5F676D8F
:105820008085989B9E92998C848B757C7A82757BFF
:105830006B6E655850413F514D585F6D7A80818D38
:10584000898A9281A5959D9AA1A49C91908D7F7340
:10585000635361585F6C808D8E9D9EA28CA287A938
:105860009994A3A29C8C888284656E65585F5D6F55
:105870007787979DBAAEB2A7AE99A88C8D9A89907A
:105880007E8372725360483A3C41534F637078890B
:1058900085908D9099AA969FA894A38C96918672D4
:1058A0007E675C4D526B5B71797C888582887689D6
:1058B000A37D90A3879B808C7D6E6A6E5553524D5D
:1058C0006F58848B97A3B5A7B19AA4AE7BB6947298
:1058D0008B72806D4F5F513C4442213F47534F6470
:1058E0008464657A7C91AA88B3C4AAC8C3C6CFBCB5
:1058F000BDC49CA19A789685909396ABA79A9A92EC
:1059000092A77A95947B856E63524239381B1C1C92
:105910001D332E4858657E6F6D725C58593C4D544E
:105920003B53475F5250565B5153575FA08DB6C3F0
:10593000DAF1DDD5EDD6D4E6C0E1E1BFDAD5D5D7D1
:10594000C7CFC9B0A29989BA8AA0BAB1C0A89DB17F
:105950008E77A3788B8A7696816C77605F47323733
:105960002D265A415A836F917B73735236552521E8
:105970002F173025333B313530272A212D613F5BEE
:105980008A6D887D7C886865957068947892889D1A
:10599000AC939D998F877B86BA86B2E3BAD4D4CE76
:1059A000CDA2A8CE9C9DCDB1BBBDCCCCA6B8B095A8
:1059B0008B8D8FB68DB4DFAFD7E0D0CAB0A4B57BE6
:1059C0007595636B7474715D6E64454B45476F4CA0
:1059D000729B6988947676635669534E72545D6BF8
:1059E0006D715D6B5F45463A305E3A55885B758BED
:1059F0006D6A5E49584744604D5364636E646966DE
:105A00005257504A7B5D73AB879CBDA3A09A7F849D
:105A1000735A6B5A5669626D6D6D6E5E5D625F950D
:105A20008093CEB4B7D8C1B4B6A0A9A495A5A49CC0
:105A3000B1ADBABAB4ADA6998F79A9968DCAB4B0F2
:105A4000CFC9B7BCA6A6A89FA7A79DAFA8B1A9A27A
:105A50009890877E6C99907BC0AFA2C0C3A4A88C9D
:105A60007D7261615D50625D606361554C424128A9
:105A70004F5C31807A697E916A6C604C4D41404642
:105A80003F46504F5B5D595351473148612D637418
:105A90005D68846A5F65505A55555F565B6A6968F0
:105AA0006A635B58504047805480A49DA4C6BDAA39
:105AB000AA8D8E786C68675F75778286877D79722C
:105AC0006B5C907A84B6B0AAB9C7ABB49DA8A09617
:105AD0009CA196A5ABBABAB8B1AD9E9B8597A67F9F
